:020000040000FA
:100000000128831603138601831203138601A301BB
:10001000A40120208530292023084520003A031917
:1000200015283720A30A0C280800C53029202408E9
:100030004C20003A031953283720A40A1728080037
:1000400002302920063029200C3029202830292090
:100050000800A200220E0F398600061286168612AC
:1000600022080F3986000612861686120800A200A2
:10007000220E0F39860006168616861222080F39C0
:100080008600061686168612080082074E3449340A
:100090004C34413459340034820741344C345434A4
:0800A0005534473400345328A5
:00000001FF
